{
  "_format": "hh-sol-artifact-1",
  "contractName": "Contacts",
  "sourceName": "contracts/Contacts.sol",
  "abi": [
    {
      "anonymous": false,
      "inputs": [
        {
          "indexed": false,
          "internalType": "string",
          "name": "firstName",
          "type": "string"
        },
        {
          "indexed": false,
          "internalType": "string",
          "name": "lastName",
          "type": "string"
        },
        {
          "indexed": false,
          "internalType": "uint256",
          "name": "phoneNumber",
          "type": "uint256"
        },
        {
          "indexed": false,
          "internalType": "uint256",
          "name": "timestamp",
          "type": "uint256"
        }
      ],
      "name": "Contact",
      "type": "event"
    },
    {
      "inputs": [
        {
          "internalType": "string",
          "name": "_firstName",
          "type": "string"
        },
        {
          "internalType": "string",
          "name": "_lastName",
          "type": "string"
        },
        {
          "internalType": "uint256",
          "name": "_phoneNumber",
          "type": "uint256"
        }
      ],
      "name": "addToBlockchain",
      "outputs": [
        {
          "internalType": "bool",
          "name": "success",
          "type": "bool"
        }
      ],
      "stateMutability": "nonpayable",
      "type": "function"
    },
    {
      "inputs": [],
      "name": "contactCount",
      "outputs": [
        {
          "internalType": "uint256",
          "name": "",
          "type": "uint256"
        }
      ],
      "stateMutability": "view",
      "type": "function"
    },
    {
      "inputs": [
        {
          "internalType": "uint256",
          "name": "",
          "type": "uint256"
        }
      ],
      "name": "contacts",
      "outputs": [
        {
          "internalType": "address",
          "name": "sender",
          "type": "address"
        },
        {
          "internalType": "string",
          "name": "firstName",
          "type": "string"
        },
        {
          "internalType": "string",
          "name": "lastName",
          "type": "string"
        },
        {
          "internalType": "uint256",
          "name": "phoneNumber",
          "type": "uint256"
        },
        {
          "internalType": "uint256",
          "name": "timestamp",
          "type": "uint256"
        }
      ],
      "stateMutability": "view",
      "type": "function"
    },
    {
      "inputs": [],
      "name": "getAllContacts",
      "outputs": [
        {
          "components": [
            {
              "internalType": "address",
              "name": "sender",
              "type": "address"
            },
            {
              "internalType": "string",
              "name": "firstName",
              "type": "string"
            },
            {
              "internalType": "string",
              "name": "lastName",
              "type": "string"
            },
            {
              "internalType": "uint256",
              "name": "phoneNumber",
              "type": "uint256"
            },
            {
              "internalType": "uint256",
              "name": "timestamp",
              "type": "uint256"
            }
          ],
          "internalType": "struct Contacts._Contact[]",
          "name": "",
          "type": "tuple[]"
        }
      ],
      "stateMutability": "view",
      "type": "function"
    },
    {
      "inputs": [],
      "name": "getContactCount",
      "outputs": [
        {
          "internalType": "uint256",
          "name": "",
          "type": "uint256"
        }
      ],
      "stateMutability": "view",
      "type": "function"
    }
  ],
  "bytecode": "0x608060405234801561001057600080fd5b50610d60806100206000396000f3fe608060405234801561001057600080fd5b50600436106100575760003560e01c806336d52ed71461005c57806395b62d3d1461007a578063e0f478cb146100aa578063ef1d6ddd146100de578063f0e5b0e0146100fc575b600080fd5b61006461011a565b6040516100719190610a68565b60405180910390f35b610094600480360381019061008f919061070c565b610123565b6040516100a191906109fa565b60405180910390f35b6100c460048036038101906100bf919061078b565b610283565b6040516100d5959493929190610977565b60405180910390f35b6100e66103f9565b6040516100f391906109d8565b60405180910390f35b6101046105e6565b6040516101119190610a68565b60405180910390f35b60008054905090565b600080600081548092919061013790610c2c565b919050555060016040518060a001604052803373ffffffffffffffffffffffffffffffffffffffff16815260200186815260200185815260200184815260200142815250908060018154018082558091505060019003906000526020600020906005020160009091909190915060008201518160000160006101000a81548173ffffffffffffffffffffffffffffffffffffffff021916908373ffffffffffffffffffffffffffffffffffffffff16021790555060208201518160010190805190602001906102079291906105ec565b5060408201518160020190805190602001906102249291906105ec565b50606082015181600301556080820151816004015550507fe74379ef170643e8f80d84c3387ed61bdad0fc0a607404936e39784e5a04c02b848484426040516102709493929190610a15565b60405180910390a1600190509392505050565b6001818154811061029357600080fd5b90600052602060002090600502016000915090508060000160009054906101000a900473ffffffffffffffffffffffffffffffffffffffff16908060010180546102dc90610bc9565b80601f016020809104026020016040519081016040528092919081815260200182805461030890610bc9565b80156103555780601f1061032a57610100808354040283529160200191610355565b820191906000526020600020905b81548152906001019060200180831161033857829003601f168201915b50505050509080600201805461036a90610bc9565b80601f016020809104026020016040519081016040528092919081815260200182805461039690610bc9565b80156103e35780601f106103b8576101008083540402835291602001916103e3565b820191906000526020600020905b8154815290600101906020018083116103c657829003601f168201915b5050505050908060030154908060040154905085565b60606001805480602002602001604051908101604052809291908181526020016000905b828210156105dd57838290600052602060002090600502016040518060a00160405290816000820160009054906101000a900473ffffffffffffffffffffffffffffffffffffffff1673ffffffffffffffffffffffffffffffffffffffff1673ffffffffffffffffffffffffffffffffffffffff1681526020016001820180546104a690610bc9565b80601f01602080910402602001604051908101604052809291908181526020018280546104d290610bc9565b801561051f5780601f106104f45761010080835404028352916020019161051f565b820191906000526020600020905b81548152906001019060200180831161050257829003601f168201915b5050505050815260200160028201805461053890610bc9565b80601f016020809104026020016040519081016040528092919081815260200182805461056490610bc9565b80156105b15780601f10610586576101008083540402835291602001916105b1565b820191906000526020600020905b81548152906001019060200180831161059457829003601f168201915b50505050508152602001600382015481526020016004820154815250508152602001906001019061041d565b50505050905090565b60005481565b8280546105f890610bc9565b90600052602060002090601f01602090048101928261061a5760008555610661565b82601f1061063357805160ff1916838001178555610661565b82800160010185558215610661579182015b82811115610660578251825591602001919060010190610645565b5b50905061066e9190610672565b5090565b5b8082111561068b576000816000905550600101610673565b5090565b60006106a261069d84610aa8565b610a83565b9050828152602081018484840111156106ba57600080fd5b6106c5848285610b87565b509392505050565b600082601f8301126106de57600080fd5b81356106ee84826020860161068f565b91505092915050565b60008135905061070681610d13565b92915050565b60008060006060848603121561072157600080fd5b600084013567ffffffffffffffff81111561073b57600080fd5b610747868287016106cd565b935050602084013567ffffffffffffffff81111561076457600080fd5b610770868287016106cd565b9250506040610781868287016106f7565b9150509250925092565b60006020828403121561079d57600080fd5b60006107ab848285016106f7565b91505092915050565b60006107c083836108dc565b905092915050565b6107d181610b3f565b82525050565b6107e081610b3f565b82525050565b60006107f182610ae9565b6107fb8185610b0c565b93508360208202850161080d85610ad9565b8060005b85811015610849578484038952815161082a85826107b4565b945061083583610aff565b925060208a01995050600181019050610811565b50829750879550505050505092915050565b61086481610b51565b82525050565b600061087582610af4565b61087f8185610b1d565b935061088f818560208601610b96565b61089881610d02565b840191505092915050565b60006108ae82610af4565b6108b88185610b2e565b93506108c8818560208601610b96565b6108d181610d02565b840191505092915050565b600060a0830160008301516108f460008601826107c8565b506020830151848203602086015261090c828261086a565b91505060408301518482036040860152610926828261086a565b915050606083015161093b6060860182610959565b50608083015161094e6080860182610959565b508091505092915050565b61096281610b7d565b82525050565b61097181610b7d565b82525050565b600060a08201905061098c60008301886107d7565b818103602083015261099e81876108a3565b905081810360408301526109b281866108a3565b90506109c16060830185610968565b6109ce6080830184610968565b9695505050505050565b600060208201905081810360008301526109f281846107e6565b905092915050565b6000602082019050610a0f600083018461085b565b92915050565b60006080820190508181036000830152610a2f81876108a3565b90508181036020830152610a4381866108a3565b9050610a526040830185610968565b610a5f6060830184610968565b95945050505050565b6000602082019050610a7d6000830184610968565b92915050565b6000610a8d610a9e565b9050610a998282610bfb565b919050565b6000604051905090565b600067ffffffffffffffff821115610ac357610ac2610cd3565b5b610acc82610d02565b9050602081019050919050565b6000819050602082019050919050565b600081519050919050565b600081519050919050565b6000602082019050919050565b600082825260208201905092915050565b600082825260208201905092915050565b600082825260208201905092915050565b6000610b4a82610b5d565b9050919050565b60008115159050919050565b600073ffffffffffffffffffffffffffffffffffffffff82169050919050565b6000819050919050565b82818337600083830152505050565b60005b83811015610bb4578082015181840152602081019050610b99565b83811115610bc3576000848401525b50505050565b60006002820490506001821680610be157607f821691505b60208210811415610bf557610bf4610ca4565b5b50919050565b610c0482610d02565b810181811067ffffffffffffffff82111715610c2357610c22610cd3565b5b80604052505050565b6000610c3782610b7d565b91507fffffffffffffffffffffffffffffffffffffffffffffffffffffffffffffffff821415610c6a57610c69610c75565b5b600182019050919050565b7f4e487b7100000000000000000000000000000000000000000000000000000000600052601160045260246000fd5b7f4e487b7100000000000000000000000000000000000000000000000000000000600052602260045260246000fd5b7f4e487b7100000000000000000000000000000000000000000000000000000000600052604160045260246000fd5b6000601f19601f8301169050919050565b610d1c81610b7d565b8114610d2757600080fd5b5056fea2646970667358221220ec53877f0472cb25686abf6a8e987016bf36a8ca9cfdb9427b7eb862f8b01aaa64736f6c63430008040033",
  "linkReferences": {},
  "deployedLinkReferences": {}
}